{
  "_format": "hh-sol-artifact-1",
  "contractName": "Token",
  "sourceName": "contracts/Token.sol",
  "abi": [
    {
      "inputs": [
        {
          "internalType": "string",
          "name": "name",
          "type": "string"
        },
        {
          "internalType": "string",
          "name": "symbol",
          "type": "string"
        },
        {
          "internalType": "uint256",
          "name": "qtyForEth",
          "type": "uint256"
        },
        {
          "internalType": "uint256",
          "name": "mintQty",
          "type": "uint256"
        }
      ],
      "stateMutability": "nonpayable",
      "type": "constructor"
    },
    {
      "anonymous": false,
      "inputs": [
        {
          "indexed": true,
          "internalType": "address",
          "name": "owner",
          "type": "address"
        },
        {
          "indexed": true,
          "internalType": "address",
          "name": "spender",
          "type": "address"
        },
        {
          "indexed": false,
          "internalType": "uint256",
          "name": "value",
          "type": "uint256"
        }
      ],
      "name": "Approval",
      "type": "event"
    },
    {
      "anonymous": false,
      "inputs": [
        {
          "indexed": true,
          "internalType": "address",
          "name": "from",
          "type": "address"
        },
        {
          "indexed": true,
          "internalType": "address",
          "name": "to",
          "type": "address"
        },
        {
          "indexed": false,
          "internalType": "uint256",
          "name": "value",
          "type": "uint256"
        }
      ],
      "name": "Transfer",
      "type": "event"
    },
    {
      "inputs": [
        {
          "internalType": "address",
          "name": "owner",
          "type": "address"
        },
        {
          "internalType": "address",
          "name": "spender",
          "type": "address"
        }
      ],
      "name": "allowance",
      "outputs": [
        {
          "internalType": "uint256",
          "name": "",
          "type": "uint256"
        }
      ],
      "stateMutability": "view",
      "type": "function"
    },
    {
      "inputs": [
        {
          "internalType": "address",
          "name": "spender",
          "type": "address"
        },
        {
          "internalType": "uint256",
          "name": "amount",
          "type": "uint256"
        }
      ],
      "name": "approve",
      "outputs": [
        {
          "internalType": "bool",
          "name": "",
          "type": "bool"
        }
      ],
      "stateMutability": "nonpayable",
      "type": "function"
    },
    {
      "inputs": [
        {
          "internalType": "address",
          "name": "account",
          "type": "address"
        }
      ],
      "name": "balanceOf",
      "outputs": [
        {
          "internalType": "uint256",
          "name": "",
          "type": "uint256"
        }
      ],
      "stateMutability": "view",
      "type": "function"
    },
    {
      "inputs": [],
      "name": "buyToken",
      "outputs": [],
      "stateMutability": "payable",
      "type": "function"
    },
    {
      "inputs": [],
      "name": "decimals",
      "outputs": [
        {
          "internalType": "uint8",
          "name": "",
          "type": "uint8"
        }
      ],
      "stateMutability": "view",
      "type": "function"
    },
    {
      "inputs": [
        {
          "internalType": "address",
          "name": "spender",
          "type": "address"
        },
        {
          "internalType": "uint256",
          "name": "subtractedValue",
          "type": "uint256"
        }
      ],
      "name": "decreaseAllowance",
      "outputs": [
        {
          "internalType": "bool",
          "name": "",
          "type": "bool"
        }
      ],
      "stateMutability": "nonpayable",
      "type": "function"
    },
    {
      "inputs": [
        {
          "internalType": "address",
          "name": "user",
          "type": "address"
        }
      ],
      "name": "getBalance",
      "outputs": [
        {
          "internalType": "uint256",
          "name": "",
          "type": "uint256"
        }
      ],
      "stateMutability": "view",
      "type": "function"
    },
    {
      "inputs": [],
      "name": "getSummary",
      "outputs": [
        {
          "internalType": "string",
          "name": "",
          "type": "string"
        },
        {
          "internalType": "string",
          "name": "",
          "type": "string"
        },
        {
          "internalType": "uint256",
          "name": "",
          "type": "uint256"
        },
        {
          "internalType": "uint256",
          "name": "",
          "type": "uint256"
        }
      ],
      "stateMutability": "view",
      "type": "function"
    },
    {
      "inputs": [
        {
          "internalType": "address",
          "name": "spender",
          "type": "address"
        },
        {
          "internalType": "uint256",
          "name": "addedValue",
          "type": "uint256"
        }
      ],
      "name": "increaseAllowance",
      "outputs": [
        {
          "internalType": "bool",
          "name": "",
          "type": "bool"
        }
      ],
      "stateMutability": "nonpayable",
      "type": "function"
    },
    {
      "inputs": [
        {
          "internalType": "uint256",
          "name": "tokenQnty",
          "type": "uint256"
        }
      ],
      "name": "mintToken",
      "outputs": [],
      "stateMutability": "nonpayable",
      "type": "function"
    },
    {
      "inputs": [],
      "name": "name",
      "outputs": [
        {
          "internalType": "string",
          "name": "",
          "type": "string"
        }
      ],
      "stateMutability": "view",
      "type": "function"
    },
    {
      "inputs": [
        {
          "internalType": "address",
          "name": "to",
          "type": "address"
        },
        {
          "internalType": "uint256",
          "name": "amount",
          "type": "uint256"
        }
      ],
      "name": "sendUserSomeToken",
      "outputs": [],
      "stateMutability": "payable",
      "type": "function"
    },
    {
      "inputs": [
        {
          "internalType": "uint256",
          "name": "qty",
          "type": "uint256"
        }
      ],
      "name": "setUnitsOneEthCanBuy",
      "outputs": [],
      "stateMutability": "nonpayable",
      "type": "function"
    },
    {
      "inputs": [],
      "name": "symbol",
      "outputs": [
        {
          "internalType": "string",
          "name": "",
          "type": "string"
        }
      ],
      "stateMutability": "view",
      "type": "function"
    },
    {
      "inputs": [],
      "name": "totalSupply",
      "outputs": [
        {
          "internalType": "uint256",
          "name": "",
          "type": "uint256"
        }
      ],
      "stateMutability": "view",
      "type": "function"
    },
    {
      "inputs": [
        {
          "internalType": "address",
          "name": "to",
          "type": "address"
        },
        {
          "internalType": "uint256",
          "name": "amount",
          "type": "uint256"
        }
      ],
      "name": "transfer",
      "outputs": [
        {
          "internalType": "bool",
          "name": "",
          "type": "bool"
        }
      ],
      "stateMutability": "nonpayable",
      "type": "function"
    },
    {
      "inputs": [
        {
          "internalType": "address",
          "name": "from",
          "type": "address"
        },
        {
          "internalType": "address",
          "name": "to",
          "type": "address"
        },
        {
          "internalType": "uint256",
          "name": "amount",
          "type": "uint256"
        }
      ],
      "name": "transferFrom",
      "outputs": [
        {
          "internalType": "bool",
          "name": "",
          "type": "bool"
        }
      ],
      "stateMutability": "nonpayable",
      "type": "function"
    },
    {
      "stateMutability": "payable",
      "type": "receive"
    }
  ],
  "bytecode": "0x60806040523480156200001157600080fd5b5060405162002a8838038062002a8883398181016040528101906200003791906200048c565b838381600390805190602001906200005192919062000353565b5080600490805190602001906200006a92919062000353565b50505033600660006101000a81548173ffffffffffffffffffffffffffffffffffffffff021916908373ffffffffffffffffffffffffffffffffffffffff16021790555081600581905550620000c681620000d060201b60201c565b5050505062000a99565b600660009054906101000a900473ffffffffffffffffffffffffffffffffffffffff1673ffffffffffffffffffffffffffffffffffffffff163373ffffffffffffffffffffffffffffffffffffffff161462000163576040517f08c379a00000000000000000000000000000000000000000000000000000000081526004016200015a9062000589565b60405180910390fd5b620001c4600660009054906101000a900473ffffffffffffffffffffffffffffffffffffffff166200019a620001c760201b60201c565b60ff16600a620001ab919062000712565b83620001b891906200084f565b620001d060201b60201c565b50565b60006012905090565b600073ffffffffffffffffffffffffffffffffffffffff168273ffffffffffffffffffffffffffffffffffffffff16141562000243576040517f08c379a00000000000000000000000000000000000000000000000000000000081526004016200023a90620005ab565b60405180910390fd5b62000257600083836200034960201b60201c565b80600260008282546200026b91906200065a565b92505081905550806000808473ffffffffffffffffffffffffffffffffffffffff1673ffffffffffffffffffffffffffffffffffffffff1681526020019081526020016000206000828254620002c291906200065a565b925050819055508173ffffffffffffffffffffffffffffffffffffffff16600073ffffffffffffffffffffffffffffffffffffffff167fddf252ad1be2c89b69c2b068fc378daa952ba7f163c4a11628f55a4df523b3ef83604051620003299190620005cd565b60405180910390a362000345600083836200034e60201b60201c565b5050565b505050565b505050565b8280546200036190620008f0565b90600052602060002090601f016020900481019282620003855760008555620003d1565b82601f10620003a057805160ff1916838001178555620003d1565b82800160010185558215620003d1579182015b82811115620003d0578251825591602001919060010190620003b3565b5b509050620003e09190620003e4565b5090565b5b80821115620003ff576000816000905550600101620003e5565b5090565b60006200041a620004148462000613565b620005ea565b9050828152602081018484840111156200043357600080fd5b62000440848285620008ba565b509392505050565b600082601f8301126200045a57600080fd5b81516200046c84826020860162000403565b91505092915050565b600081519050620004868162000a7f565b92915050565b60008060008060808587031215620004a357600080fd5b600085015167ffffffffffffffff811115620004be57600080fd5b620004cc8782880162000448565b945050602085015167ffffffffffffffff811115620004ea57600080fd5b620004f88782880162000448565b93505060406200050b8782880162000475565b92505060606200051e8782880162000475565b91505092959194509250565b60006200053960368362000649565b9150620005468262000a07565b604082019050919050565b600062000560601f8362000649565b91506200056d8262000a56565b602082019050919050565b6200058381620008b0565b82525050565b60006020820190508181036000830152620005a4816200052a565b9050919050565b60006020820190508181036000830152620005c68162000551565b9050919050565b6000602082019050620005e4600083018462000578565b92915050565b6000620005f662000609565b905062000604828262000926565b919050565b6000604051905090565b600067ffffffffffffffff821115620006315762000630620009ba565b5b6200063c82620009e9565b9050602081019050919050565b600082825260208201905092915050565b60006200066782620008b0565b91506200067483620008b0565b9250827fffffffffffffffffffffffffffffffffffffffffffffffffffffffffffffffff03821115620006ac57620006ab6200095c565b5b828201905092915050565b6000808291508390505b60018511156200070957808604811115620006e157620006e06200095c565b5b6001851615620006f15780820291505b80810290506200070185620009fa565b9450620006c1565b94509492505050565b60006200071f82620008b0565b91506200072c83620008b0565b92506200075b7fffffffffffffffffffffffffffffffffffffffffffffffffffffffffffffffff848462000763565b905092915050565b60008262000775576001905062000848565b8162000785576000905062000848565b81600181146200079e5760028114620007a957620007df565b600191505062000848565b60ff841115620007be57620007bd6200095c565b5b8360020a915084821115620007d857620007d76200095c565b5b5062000848565b5060208310610133831016604e8410600b8410161715620008195782820a9050838111156200081357620008126200095c565b5b62000848565b620008288484846001620006b7565b925090508184048111156200084257620008416200095c565b5b81810290505b9392505050565b60006200085c82620008b0565b91506200086983620008b0565b9250817fffffffffffffffffffffffffffffffffffffffffffffffffffffffffffffffff0483118215151615620008a557620008a46200095c565b5b828202905092915050565b6000819050919050565b60005b83811015620008da578082015181840152602081019050620008bd565b83811115620008ea576000848401525b50505050565b600060028204905060018216806200090957607f821691505b6020821081141562000920576200091f6200098b565b5b50919050565b6200093182620009e9565b810181811067ffffffffffffffff82111715620009535762000952620009ba565b5b80604052505050565b7f4e487b7100000000000000000000000000000000000000000000000000000000600052601160045260246000fd5b7f4e487b7100000000000000000000000000000000000000000000000000000000600052602260045260246000fd5b7f4e487b7100000000000000000000000000000000000000000000000000000000600052604160045260246000fd5b6000601f19601f8301169050919050565b60008160011c9050919050565b7f536f72727920796f7520617265206e6f7420617574686f726973656420746f2060008201527f706572666f726d2074686973206f7065726174696f6e00000000000000000000602082015250565b7f45524332303a206d696e7420746f20746865207a65726f206164647265737300600082015250565b62000a8a81620008b0565b811462000a9657600080fd5b50565b611fdf8062000aa96000396000f3fe6080604052600436106101025760003560e01c806370a0823111610095578063a9059cbb11610064578063a9059cbb146104dc578063c634d03214610519578063cc8bd06014610542578063dd62ed3e1461056b578063f8b2cb4f146105a8576102a6565b806370a082311461042d57806395d89b411461046a578063a457c2d714610495578063a4821719146104d2576102a6565b8063313ce567116100d1578063313ce5671461037b57806339509351146103a65780633da01de0146103e35780634051ddac146103ff576102a6565b806306fdde03146102ab578063095ea7b3146102d657806318160ddd1461031357806323b872dd1461033e576102a6565b366102a6576000600554346101179190611b47565b905080610145600660009054906101000a900473ffffffffffffffffffffffffffffffffffffffff166105e5565b1015610186576040517f08c379a000000000000000000000000000000000000000000000000000000000815260040161017d906118ce565b60405180910390fd5b6101b3600660009054906101000a900473ffffffffffffffffffffffffffffffffffffffff16338361062d565b3373ffffffffffffffffffffffffffffffffffffffff16600660009054906101000a900473ffffffffffffffffffffffffffffffffffffffff1673ffffffffffffffffffffffffffffffffffffffff167fddf252ad1be2c89b69c2b068fc378daa952ba7f163c4a11628f55a4df523b3ef83604051610232919061192e565b60405180910390a3600660009054906101000a900473ffffffffffffffffffffffffffffffffffffffff1673ffffffffffffffffffffffffffffffffffffffff166108fc349081150290604051600060405180830381858888f193505050501580156102a2573d6000803e3d6000fd5b5050005b600080fd5b3480156102b757600080fd5b506102c06108ae565b6040516102cd9190611779565b60405180910390f35b3480156102e257600080fd5b506102fd60048036038101906102f89190611535565b610940565b60405161030a919061175e565b60405180910390f35b34801561031f57600080fd5b50610328610963565b604051610335919061192e565b60405180910390f35b34801561034a57600080fd5b50610365600480360381019061036091906114e6565b61096d565b604051610372919061175e565b60405180910390f35b34801561038757600080fd5b5061039061099c565b60405161039d9190611949565b60405180910390f35b3480156103b257600080fd5b506103cd60048036038101906103c89190611535565b6109a5565b6040516103da919061175e565b60405180910390f35b6103fd60048036038101906103f89190611535565b610a4f565b005b34801561040b57600080fd5b50610414610b0e565b604051610424949392919061179b565b60405180910390f35b34801561043957600080fd5b50610454600480360381019061044f9190611481565b6105e5565b604051610461919061192e565b60405180910390f35b34801561047657600080fd5b5061047f610b3d565b60405161048c9190611779565b60405180910390f35b3480156104a157600080fd5b506104bc60048036038101906104b79190611535565b610bcf565b6040516104c9919061175e565b60405180910390f35b6104da610cb9565b005b3480156104e857600080fd5b5061050360048036038101906104fe9190611535565b610e58565b604051610510919061175e565b60405180910390f35b34801561052557600080fd5b50610540600480360381019061053b9190611571565b610e7b565b005b34801561054e57600080fd5b5061056960048036038101906105649190611571565b610f5b565b005b34801561057757600080fd5b50610592600480360381019061058d91906114aa565b610ff5565b60405161059f919061192e565b60405180910390f35b3480156105b457600080fd5b506105cf60048036038101906105ca9190611481565b61107c565b6040516105dc919061192e565b60405180910390f35b60008060008373ffffffffffffffffffffffffffffffffffffffff1673ffffffffffffffffffffffffffffffffffffffff168152602001908152602001600020549050919050565b600073ffffffffffffffffffffffffffffffffffffffff168373ffffffffffffffffffffffffffffffffffffffff16141561069d576040517f08c379a00000000000000000000000000000000000000000000000000000000081526004016106949061188e565b60405180910390fd5b600073ffffffffffffffffffffffffffffffffffffffff168273ffffffffffffffffffffffffffffffffffffffff16141561070d576040517f08c379a0000000000000000000000000000000000000000000000000000000008152600401610704906117ee565b60405180910390fd5b61071883838361108e565b60008060008573ffffffffffffffffffffffffffffffffffffffff1673ffffffffffffffffffffffffffffffffffffffff1681526020019081526020016000205490508181101561079e576040517f08c379a00000000000000000000000000000000000000000000000000000000081526004016107959061184e565b60405180910390fd5b8181036000808673ffffffffffffffffffffffffffffffffffffffff1673ffffffffffffffffffffffffffffffffffffffff16815260200190815260200160002081905550816000808573ffffffffffffffffffffffffffffffffffffffff1673ffffffffffffffffffffffffffffffffffffffff16815260200190815260200160002060008282546108319190611980565b925050819055508273ffffffffffffffffffffffffffffffffffffffff168473ffffffffffffffffffffffffffffffffffffffff167fddf252ad1be2c89b69c2b068fc378daa952ba7f163c4a11628f55a4df523b3ef84604051610895919061192e565b60405180910390a36108a8848484611093565b50505050565b6060600380546108bd90611c29565b80601f01602080910402602001604051908101604052809291908181526020018280546108e990611c29565b80156109365780601f1061090b57610100808354040283529160200191610936565b820191906000526020600020905b81548152906001019060200180831161091957829003601f168201915b5050505050905090565b60008061094b611098565b90506109588185856110a0565b600191505092915050565b6000600254905090565b600080610978611098565b905061098585828561126b565b61099085858561062d565b60019150509392505050565b60006012905090565b6000806109b0611098565b9050610a44818585600160008673ffffffffffffffffffffffffffffffffffffffff1673ffffffffffffffffffffffffffffffffffffffff16815260200190815260200160002060008973ffffffffffffffffffffffffffffffffffffffff1673ffffffffffffffffffffffffffffffffffffffff16815260200190815260200160002054610a3f9190611980565b6110a0565b600191505092915050565b80610a59336105e5565b1015610a9a576040517f08c379a0000000000000000000000000000000000000000000000000000000008152600401610a91906118ce565b60405180910390fd5b610aa533838361062d565b8173ffffffffffffffffffffffffffffffffffffffff163373ffffffffffffffffffffffffffffffffffffffff167fddf252ad1be2c89b69c2b068fc378daa952ba7f163c4a11628f55a4df523b3ef83604051610b02919061192e565b60405180910390a35050565b606080600080610b1c6108ae565b610b24610b3d565b610b2c610963565b600554935093509350935090919293565b606060048054610b4c90611c29565b80601f0160208091040260200160405190810160405280929190818152602001828054610b7890611c29565b8015610bc55780601f10610b9a57610100808354040283529160200191610bc5565b820191906000526020600020905b815481529060010190602001808311610ba857829003601f168201915b5050505050905090565b600080610bda611098565b90506000600160008373ffffffffffffffffffffffffffffffffffffffff1673ffffffffffffffffffffffffffffffffffffffff16815260200190815260200160002060008673ffffffffffffffffffffffffffffffffffffffff1673ffffffffffffffffffffffffffffffffffffffff16815260200190815260200160002054905083811015610ca0576040517f08c379a0000000000000000000000000000000000000000000000000000000008152600401610c97906118ee565b60405180910390fd5b610cad82868684036110a0565b60019250505092915050565b600060055434610cc99190611b47565b905080610cf7600660009054906101000a900473ffffffffffffffffffffffffffffffffffffffff166105e5565b1015610d38576040517f08c379a0000000000000000000000000000000000000000000000000000000008152600401610d2f906118ce565b60405180910390fd5b610d65600660009054906101000a900473ffffffffffffffffffffffffffffffffffffffff16338361062d565b3373ffffffffffffffffffffffffffffffffffffffff16600660009054906101000a900473ffffffffffffffffffffffffffffffffffffffff1673ffffffffffffffffffffffffffffffffffffffff167fddf252ad1be2c89b69c2b068fc378daa952ba7f163c4a11628f55a4df523b3ef83604051610de4919061192e565b60405180910390a3600660009054906101000a900473ffffffffffffffffffffffffffffffffffffffff1673ffffffffffffffffffffffffffffffffffffffff166108fc349081150290604051600060405180830381858888f19350505050158015610e54573d6000803e3d6000fd5b5050565b600080610e63611098565b9050610e7081858561062d565b600191505092915050565b600660009054906101000a900473ffffffffffffffffffffffffffffffffffffffff1673ffffffffffffffffffffffffffffffffffffffff163373ffffffffffffffffffffffffffffffffffffffff1614610f0b576040517f08c379a0000000000000000000000000000000000000000000000000000000008152600401610f029061186e565b60405180910390fd5b610f58600660009054906101000a900473ffffffffffffffffffffffffffffffffffffffff16610f3961099c565b60ff16600a610f489190611a29565b83610f539190611b47565b6112f7565b50565b600660009054906101000a900473ffffffffffffffffffffffffffffffffffffffff1673ffffffffffffffffffffffffffffffffffffffff163373ffffffffffffffffffffffffffffffffffffffff1614610feb576040517f08c379a0000000000000000000000000000000000000000000000000000000008152600401610fe29061186e565b60405180910390fd5b8060058190555050565b6000600160008473ffffffffffffffffffffffffffffffffffffffff1673ffffffffffffffffffffffffffffffffffffffff16815260200190815260200160002060008373ffffffffffffffffffffffffffffffffffffffff1673ffffffffffffffffffffffffffffffffffffffff16815260200190815260200160002054905092915050565b6000611087826105e5565b9050919050565b505050565b505050565b600033905090565b600073ffffffffffffffffffffffffffffffffffffffff168373ffffffffffffffffffffffffffffffffffffffff161415611110576040517f08c379a0000000000000000000000000000000000000000000000000000000008152600401611107906118ae565b60405180910390fd5b600073ffffffffffffffffffffffffffffffffffffffff168273ffffffffffffffffffffffffffffffffffffffff161415611180576040517f08c379a00000000000000000000000000000000000000000000000000000000081526004016111779061180e565b60405180910390fd5b80600160008573ffffffffffffffffffffffffffffffffffffffff1673ffffffffffffffffffffffffffffffffffffffff16815260200190815260200160002060008473ffffffffffffffffffffffffffffffffffffffff1673ffffffffffffffffffffffffffffffffffffffff168152602001908152602001600020819055508173ffffffffffffffffffffffffffffffffffffffff168373ffffffffffffffffffffffffffffffffffffffff167f8c5be1e5ebec7d5bd14f71427d1e84f3dd0314c0f7b2291e5b200ac8c7c3b9258360405161125e919061192e565b60405180910390a3505050565b60006112778484610ff5565b90507fffffffffffffffffffffffffffffffffffffffffffffffffffffffffffffffff81146112f157818110156112e3576040517f08c379a00000000000000000000000000000000000000000000000000000000081526004016112da9061182e565b60405180910390fd5b6112f084848484036110a0565b5b50505050565b600073ffffffffffffffffffffffffffffffffffffffff168273ffffffffffffffffffffffffffffffffffffffff161415611367576040517f08c379a000000000000000000000000000000000000000000000000000000000815260040161135e9061190e565b60405180910390fd5b6113736000838361108e565b80600260008282546113859190611980565b92505081905550806000808473ffffffffffffffffffffffffffffffffffffffff1673ffffffffffffffffffffffffffffffffffffffff16815260200190815260200160002060008282546113da9190611980565b925050819055508173ffffffffffffffffffffffffffffffffffffffff16600073ffffffffffffffffffffffffffffffffffffffff167fddf252ad1be2c89b69c2b068fc378daa952ba7f163c4a11628f55a4df523b3ef8360405161143f919061192e565b60405180910390a361145360008383611093565b5050565b60008135905061146681611f7b565b92915050565b60008135905061147b81611f92565b92915050565b60006020828403121561149357600080fd5b60006114a184828501611457565b91505092915050565b600080604083850312156114bd57600080fd5b60006114cb85828601611457565b92505060206114dc85828601611457565b9150509250929050565b6000806000606084860312156114fb57600080fd5b600061150986828701611457565b935050602061151a86828701611457565b925050604061152b8682870161146c565b9150509250925092565b6000806040838503121561154857600080fd5b600061155685828601611457565b92505060206115678582860161146c565b9150509250929050565b60006020828403121561158357600080fd5b60006115918482850161146c565b91505092915050565b6115a381611bb3565b82525050565b60006115b482611964565b6115be818561196f565b93506115ce818560208601611bf6565b6115d781611cb9565b840191505092915050565b60006115ef60238361196f565b91506115fa82611cd7565b604082019050919050565b600061161260228361196f565b915061161d82611d26565b604082019050919050565b6000611635601d8361196f565b915061164082611d75565b602082019050919050565b600061165860268361196f565b915061166382611d9e565b604082019050919050565b600061167b60368361196f565b915061168682611ded565b604082019050919050565b600061169e60258361196f565b91506116a982611e3c565b604082019050919050565b60006116c160248361196f565b91506116cc82611e8b565b604082019050919050565b60006116e460118361196f565b91506116ef82611eda565b602082019050919050565b600061170760258361196f565b915061171282611f03565b604082019050919050565b600061172a601f8361196f565b915061173582611f52565b602082019050919050565b61174981611bdf565b82525050565b61175881611be9565b82525050565b6000602082019050611773600083018461159a565b92915050565b6000602082019050818103600083015261179381846115a9565b905092915050565b600060808201905081810360008301526117b581876115a9565b905081810360208301526117c981866115a9565b90506117d86040830185611740565b6117e56060830184611740565b95945050505050565b60006020820190508181036000830152611807816115e2565b9050919050565b6000602082019050818103600083015261182781611605565b9050919050565b6000602082019050818103600083015261184781611628565b9050919050565b600060208201905081810360008301526118678161164b565b9050919050565b600060208201905081810360008301526118878161166e565b9050919050565b600060208201905081810360008301526118a781611691565b9050919050565b600060208201905081810360008301526118c7816116b4565b9050919050565b600060208201905081810360008301526118e7816116d7565b9050919050565b60006020820190508181036000830152611907816116fa565b9050919050565b600060208201905081810360008301526119278161171d565b9050919050565b60006020820190506119436000830184611740565b92915050565b600060208201905061195e600083018461174f565b92915050565b600081519050919050565b600082825260208201905092915050565b600061198b82611bdf565b915061199683611bdf565b9250827fffffffffffffffffffffffffffffffffffffffffffffffffffffffffffffffff038211156119cb576119ca611c5b565b5b828201905092915050565b6000808291508390505b6001851115611a20578086048111156119fc576119fb611c5b565b5b6001851615611a0b5780820291505b8081029050611a1985611cca565b94506119e0565b94509492505050565b6000611a3482611bdf565b9150611a3f83611bdf565b9250611a6c7fffffffffffffffffffffffffffffffffffffffffffffffffffffffffffffffff8484611a74565b905092915050565b600082611a845760019050611b40565b81611a925760009050611b40565b8160018114611aa85760028114611ab257611ae1565b6001915050611b40565b60ff841115611ac457611ac3611c5b565b5b8360020a915084821115611adb57611ada611c5b565b5b50611b40565b5060208310610133831016604e8410600b8410161715611b165782820a905083811115611b1157611b10611c5b565b5b611b40565b611b2384848460016119d6565b92509050818404811115611b3a57611b39611c5b565b5b81810290505b9392505050565b6000611b5282611bdf565b9150611b5d83611bdf565b9250817fffffffffffffffffffffffffffffffffffffffffffffffffffffffffffffffff0483118215151615611b9657611b95611c5b565b5b828202905092915050565b6000611bac82611bbf565b9050919050565b60008115159050919050565b600073ffffffffffffffffffffffffffffffffffffffff82169050919050565b6000819050919050565b600060ff82169050919050565b60005b83811015611c14578082015181840152602081019050611bf9565b83811115611c23576000848401525b50505050565b60006002820490506001821680611c4157607f821691505b60208210811415611c5557611c54611c8a565b5b50919050565b7f4e487b7100000000000000000000000000000000000000000000000000000000600052601160045260246000fd5b7f4e487b7100000000000000000000000000000000000000000000000000000000600052602260045260246000fd5b6000601f19601f8301169050919050565b60008160011c9050919050565b7f45524332303a207472616e7366657220746f20746865207a65726f206164647260008201527f6573730000000000000000000000000000000000000000000000000000000000602082015250565b7f45524332303a20617070726f766520746f20746865207a65726f20616464726560008201527f7373000000000000000000000000000000000000000000000000000000000000602082015250565b7f45524332303a20696e73756666696369656e7420616c6c6f77616e6365000000600082015250565b7f45524332303a207472616e7366657220616d6f756e742065786365656473206260008201527f616c616e63650000000000000000000000000000000000000000000000000000602082015250565b7f536f72727920796f7520617265206e6f7420617574686f726973656420746f2060008201527f706572666f726d2074686973206f7065726174696f6e00000000000000000000602082015250565b7f45524332303a207472616e736665722066726f6d20746865207a65726f20616460008201527f6472657373000000000000000000000000000000000000000000000000000000602082015250565b7f45524332303a20617070726f76652066726f6d20746865207a65726f2061646460008201527f7265737300000000000000000000000000000000000000000000000000000000602082015250565b7f4e6f7420656e6f75676820746f6b656e73000000000000000000000000000000600082015250565b7f45524332303a2064656372656173656420616c6c6f77616e63652062656c6f7760008201527f207a65726f000000000000000000000000000000000000000000000000000000602082015250565b7f45524332303a206d696e7420746f20746865207a65726f206164647265737300600082015250565b611f8481611ba1565b8114611f8f57600080fd5b50565b611f9b81611bdf565b8114611fa657600080fd5b5056fea2646970667358221220f3367497bfd368d64bd52dc238a692f2f7f38546947ea3b0744bc8771066cd9464736f6c63430008040033",
  "linkReferences": {},
  "deployedLinkReferences": {}
}